{
  "_format": "hh-sol-artifact-1",
  "contractName": "Echo",
  "sourceName": "contracts/Echo.sol",
  "abi": [
    {
      "anonymous": false,
      "inputs": [
        {
          "indexed": false,
          "internalType": "string",
          "name": "_communicationAddress",
          "type": "string"
        }
      ],
      "name": "IdentityEvent",
      "type": "event"
    },
    {
      "inputs": [
        {
          "internalType": "string",
          "name": "_communicationAddress",
          "type": "string"
        }
      ],
      "name": "logIdentity",
      "outputs": [],
      "stateMutability": "nonpayable",
      "type": "function"
    },
    {
      "inputs": [
        {
          "internalType": "address",
          "name": "_receiver",
          "type": "address"
        },
        {
          "internalType": "string",
          "name": "_message",
          "type": "string"
        }
      ],
      "name": "logMessage",
      "outputs": [],
      "stateMutability": "nonpayable",
      "type": "function"
    },
    {
      "anonymous": false,
      "inputs": [
        {
          "indexed": true,
          "internalType": "address",
          "name": "_receiver",
          "type": "address"
        },
        {
          "indexed": false,
          "internalType": "string",
          "name": "_message",
          "type": "string"
        }
      ],
      "name": "MessageEvent",
      "type": "event"
    },
    {
      "inputs": [],
      "name": "test",
      "outputs": [
        {
          "internalType": "uint256",
          "name": "",
          "type": "uint256"
        }
      ],
      "stateMutability": "view",
      "type": "function"
    }
  ],
  "bytecode": "0x608060405234801561001057600080fd5b50610232806100206000396000f3fe608060405234801561001057600080fd5b50600436106100365760003560e01c8063277f37f61461003b578063a2253bad14610050575b600080fd5b61004e61004936600461012f565b610063565b005b61004e61005e36600461018d565b6100ab565b826001600160a01b03167f3bba4e41ec1afba7331e5eddb5b430e09e2bad80d15bac4433d8679c8cf7fd42838360405161009e9291906101cd565b60405180910390a2505050565b7f5a30b285f3990619f15487664b7c41b4ccbde9dbfc009f6cfb7687801a600e8b82826040516100dc9291906101cd565b60405180910390a15050565b60008083601f8401126100f9578182fd5b50813567ffffffffffffffff811115610110578182fd5b60208301915083602082850101111561012857600080fd5b9250929050565b600080600060408486031215610143578283fd5b83356001600160a01b0381168114610159578384fd5b9250602084013567ffffffffffffffff811115610174578283fd5b610180868287016100e8565b9497909650939450505050565b6000806020838503121561019f578182fd5b823567ffffffffffffffff8111156101b5578283fd5b6101c1858286016100e8565b90969095509350505050565b60208152816020820152818360408301376000818301604090810191909152601f909201601f1916010191905056fea2646970667358221220e7436c404e496e7c25a4c938462c6f1ab288867389897ba73a23f9ff005c05b164736f6c63430008040033",
  "linkReferences": {},
  "deployedLinkReferences": {}
}