{
  "_format": "hh-sol-artifact-1",
  "contractName": "Echo",
  "sourceName": "contracts/Echo.sol",
  "abi": [
    {
      "anonymous": false,
      "inputs": [
        {
          "indexed": false,
          "internalType": "string",
          "name": "_communicationAddress",
          "type": "string"
        }
      ],
      "name": "IdentityEvent",
      "type": "event"
    },
    {
      "anonymous": false,
      "inputs": [
        {
          "indexed": true,
          "internalType": "address",
          "name": "_receiver",
          "type": "address"
        },
        {
          "indexed": false,
          "internalType": "string",
          "name": "_senderMessage",
          "type": "string"
        },
        {
          "indexed": false,
          "internalType": "string",
          "name": "_receiverMessage",
          "type": "string"
        }
      ],
      "name": "MessageEvent",
      "type": "event"
    },
    {
      "inputs": [
        {
          "internalType": "string",
          "name": "_communicationAddress",
          "type": "string"
        }
      ],
      "name": "logIdentity",
      "outputs": [],
      "stateMutability": "nonpayable",
      "type": "function"
    },
    {
      "inputs": [
        {
          "internalType": "address",
          "name": "_receiver",
          "type": "address"
        },
        {
          "internalType": "string",
          "name": "_senderMessage",
          "type": "string"
        },
        {
          "internalType": "string",
          "name": "_receiverMessage",
          "type": "string"
        }
      ],
      "name": "logMessage",
      "outputs": [],
      "stateMutability": "nonpayable",
      "type": "function"
    }
  ],
  "bytecode": "0x608060405234801561001057600080fd5b506102b5806100206000396000f3fe608060405234801561001057600080fd5b50600436106100365760003560e01c8063a2253bad1461003b578063c35af8b814610050575b600080fd5b61004e610049366004610137565b610063565b005b61004e61005e366004610179565b6100a0565b7f5a30b285f3990619f15487664b7c41b4ccbde9dbfc009f6cfb7687801a600e8b8282604051610094929190610231565b60405180910390a15050565b846001600160a01b03167ff05771101b37a37e44258b848c26d53f403b61f001ed9174097e7f58f7c6d1b8858585856040516100df949392919061024d565b60405180910390a25050505050565b60008083601f84011261010057600080fd5b50813567ffffffffffffffff81111561011857600080fd5b60208301915083602082850101111561013057600080fd5b9250929050565b6000806020838503121561014a57600080fd5b823567ffffffffffffffff81111561016157600080fd5b61016d858286016100ee565b90969095509350505050565b60008060008060006060868803121561019157600080fd5b85356001600160a01b03811681146101a857600080fd5b9450602086013567ffffffffffffffff808211156101c557600080fd5b6101d189838a016100ee565b909650945060408801359150808211156101ea57600080fd5b506101f7888289016100ee565b969995985093965092949392505050565b81835281816020850137506000828201602090810191909152601f909101601f19169091010190565b602081526000610245602083018486610208565b949350505050565b604081526000610261604083018688610208565b8281036020840152610274818587610208565b97965050505050505056fea2646970667358221220293df48b2953eceed51cae7c345703421d1f969ee29e13531d1a5144386b2f2a64736f6c634300080d0033",
  "linkReferences": {},
  "deployedLinkReferences": {}
}